{
  "_format": "hh3-artifact-1",
  "contractName": "BlockJarTip",
  "sourceName": "contracts/BlockJarTipContract.sol",
  "abi": [
    {
      "inputs": [
        {
          "internalType": "address",
          "name": "initialOwner",
          "type": "address"
        }
      ],
      "stateMutability": "nonpayable",
      "type": "constructor"
    },
    {
      "inputs": [
        {
          "internalType": "address",
          "name": "owner",
          "type": "address"
        }
      ],
      "name": "OwnableInvalidOwner",
      "type": "error"
    },
    {
      "inputs": [
        {
          "internalType": "address",
          "name": "account",
          "type": "address"
        }
      ],
      "name": "OwnableUnauthorizedAccount",
      "type": "error"
    },
    {
      "anonymous": false,
      "inputs": [
        {
          "indexed": true,
          "internalType": "address",
          "name": "previousOwner",
          "type": "address"
        },
        {
          "indexed": true,
          "internalType": "address",
          "name": "newOwner",
          "type": "address"
        }
      ],
      "name": "OwnershipTransferred",
      "type": "event"
    },
    {
      "anonymous": false,
      "inputs": [
        {
          "indexed": true,
          "internalType": "address",
          "name": "sender",
          "type": "address"
        },
        {
          "indexed": false,
          "internalType": "uint256",
          "name": "amount",
          "type": "uint256"
        },
        {
          "indexed": false,
          "internalType": "string",
          "name": "message",
          "type": "string"
        }
      ],
      "name": "TipReceived",
      "type": "event"
    },
    {
      "inputs": [],
      "name": "owner",
      "outputs": [
        {
          "internalType": "address",
          "name": "",
          "type": "address"
        }
      ],
      "stateMutability": "view",
      "type": "function"
    },
    {
      "inputs": [],
      "name": "renounceOwnership",
      "outputs": [],
      "stateMutability": "nonpayable",
      "type": "function"
    },
    {
      "inputs": [
        {
          "internalType": "string",
          "name": "message",
          "type": "string"
        }
      ],
      "name": "tip",
      "outputs": [],
      "stateMutability": "payable",
      "type": "function"
    },
    {
      "inputs": [
        {
          "internalType": "address",
          "name": "newOwner",
          "type": "address"
        }
      ],
      "name": "transferOwnership",
      "outputs": [],
      "stateMutability": "nonpayable",
      "type": "function"
    },
    {
      "inputs": [],
      "name": "withdraw",
      "outputs": [],
      "stateMutability": "nonpayable",
      "type": "function"
    }
  ],
  "bytecode": "0x608060405234801561000f575f5ffd5b50604051610a63380380610a63833981810160405281019061003191906101d7565b805f73ffffffffffffffffffffffffffffffffffffffff168173ffffffffffffffffffffffffffffffffffffffff16036100a2575f6040517f1e4fbdf70000000000000000000000000000000000000000000000000000000081526004016100999190610211565b60405180910390fd5b6100b1816100b860201b60201c565b505061022a565b5f5f5f9054906101000a900473ffffffffffffffffffffffffffffffffffffffff169050815f5f6101000a81548173ffffffffffffffffffffffffffffffffffffffff021916908373ffffffffffffffffffffffffffffffffffffffff1602179055508173ffffffffffffffffffffffffffffffffffffffff168173ffffffffffffffffffffffffffffffffffffffff167f8be0079c531659141344cd1fd0a4f28419497f9722a3daafe3b4186f6b6457e060405160405180910390a35050565b5f5ffd5b5f73ffffffffffffffffffffffffffffffffffffffff82169050919050565b5f6101a68261017d565b9050919050565b6101b68161019c565b81146101c0575f5ffd5b50565b5f815190506101d1816101ad565b92915050565b5f602082840312156101ec576101eb610179565b5b5f6101f9848285016101c3565b91505092915050565b61020b8161019c565b82525050565b5f6020820190506102245f830184610202565b92915050565b61082c806102375f395ff3fe608060405260043610610049575f3560e01c80633ccfd60b1461004d578063715018a6146100635780638da5cb5b14610079578063cb56393c146100a3578063f2fde38b146100bf575b5f5ffd5b348015610058575f5ffd5b506100616100e7565b005b34801561006e575f5ffd5b50610077610183565b005b348015610084575f5ffd5b5061008d610196565b60405161009a91906104c6565b60405180910390f35b6100bd60048036038101906100b89190610548565b6101bd565b005b3480156100ca575f5ffd5b506100e560048036038101906100e091906105bd565b6102b4565b005b6100ef610338565b5f4790505f8111610135576040517f08c379a000000000000000000000000000000000000000000000000000000000815260040161012c90610642565b60405180910390fd5b61013d610196565b73ffffffffffffffffffffffffffffffffffffffff166108fc8290811502906040515f60405180830381858888f1935050505015801561017f573d5f5f3e3d5ffd5b5050565b61018b610338565b6101945f6103bf565b565b5f5f5f9054906101000a900473ffffffffffffffffffffffffffffffffffffffff16905090565b5f34116101ff576040517f08c379a00000000000000000000000000000000000000000000000000000000081526004016101f6906106d0565b60405180910390fd5b5f828290501115610261573373ffffffffffffffffffffffffffffffffffffffff167f8d379bddc159e67937283b53edd0858bdd6f8ba659d7bc286617c5afdb4f478034848460405161025493929190610750565b60405180910390a26102b0565b3373ffffffffffffffffffffffffffffffffffffffff167f8d379bddc159e67937283b53edd0858bdd6f8ba659d7bc286617c5afdb4f4780346040516102a791906107ca565b60405180910390a25b5050565b6102bc610338565b5f73ffffffffffffffffffffffffffffffffffffffff168173ffffffffffffffffffffffffffffffffffffffff160361032c575f6040517f1e4fbdf700000000000000000000000000000000000000000000000000000000815260040161032391906104c6565b60405180910390fd5b610335816103bf565b50565b610340610480565b73ffffffffffffffffffffffffffffffffffffffff1661035e610196565b73ffffffffffffffffffffffffffffffffffffffff16146103bd57610381610480565b6040517f118cdaa70000000000000000000000000000000000000000000000000000000081526004016103b491906104c6565b60405180910390fd5b565b5f5f5f9054906101000a900473ffffffffffffffffffffffffffffffffffffffff169050815f5f6101000a81548173ffffffffffffffffffffffffffffffffffffffff021916908373ffffffffffffffffffffffffffffffffffffffff1602179055508173ffffffffffffffffffffffffffffffffffffffff168173ffffffffffffffffffffffffffffffffffffffff167f8be0079c531659141344cd1fd0a4f28419497f9722a3daafe3b4186f6b6457e060405160405180910390a35050565b5f33905090565b5f73ffffffffffffffffffffffffffffffffffffffff82169050919050565b5f6104b082610487565b9050919050565b6104c0816104a6565b82525050565b5f6020820190506104d95f8301846104b7565b92915050565b5f5ffd5b5f5ffd5b5f5ffd5b5f5ffd5b5f5ffd5b5f5f83601f840112610508576105076104e7565b5b8235905067ffffffffffffffff811115610525576105246104eb565b5b602083019150836001820283011115610541576105406104ef565b5b9250929050565b5f5f6020838503121561055e5761055d6104df565b5b5f83013567ffffffffffffffff81111561057b5761057a6104e3565b5b610587858286016104f3565b92509250509250929050565b61059c816104a6565b81146105a6575f5ffd5b50565b5f813590506105b781610593565b92915050565b5f602082840312156105d2576105d16104df565b5b5f6105df848285016105a9565b91505092915050565b5f82825260208201905092915050565b7f4e6f2066756e647320746f2077697468647261770000000000000000000000005f82015250565b5f61062c6014836105e8565b9150610637826105f8565b602082019050919050565b5f6020820190508181035f83015261065981610620565b9050919050565b7f54697020616d6f756e74206d7573742062652067726561746572207468616e205f8201527f7a65726f00000000000000000000000000000000000000000000000000000000602082015250565b5f6106ba6024836105e8565b91506106c582610660565b604082019050919050565b5f6020820190508181035f8301526106e7816106ae565b9050919050565b5f819050919050565b610700816106ee565b82525050565b828183375f83830152505050565b5f601f19601f8301169050919050565b5f61072f83856105e8565b935061073c838584610706565b61074583610714565b840190509392505050565b5f6040820190506107635f8301866106f7565b8181036020830152610776818486610724565b9050949350505050565b7f4e6f206d657373616765000000000000000000000000000000000000000000005f82015250565b5f6107b4600a836105e8565b91506107bf82610780565b602082019050919050565b5f6040820190506107dd5f8301846106f7565b81810360208301526107ee816107a8565b90509291505056fea264697066735822122032fbbc9af43c2deadf20190ea051cfaf5bbdeaaad72a2d471bbdd3160dba831064736f6c634300081c0033",
  "linkReferences": {},
  "deployedLinkReferences": {},
  "immutableReferences": {},
  "inputSourceName": "project/contracts/BlockJarTipContract.sol",
  "buildInfoId": "solc-0_8_28-f628690e76051f4f630f37be3af9422012a47895"
}